{
  "transactions": [
    {
      "hash": "0xef3a17471919dab9a948a0e56f5ce1018bdab6cbbfb793888cdc237dfe43fc6c",
      "transactionType": "CALL",
      "contractName": null,
      "contractAddress": "0x779877a7b0d9e8603169ddbd7836e478b4624789",
      "function": "transferAndCall(address,uint256,bytes)",
      "arguments": [
        "0x9DdfaCa8183c41ad55329BdeeD9F6A8d53168B1B",
        "3000000000000000000",
        "0x28e71ef008640e5240bca964bc806c379304a19659b23168acf196d862250d76"
      ],
      "transaction": {
        "from": "0xdbc29e79b2b3b62c015ab598d0bb86681313d90f",
        "to": "0x779877a7b0d9e8603169ddbd7836e478b4624789",
        "gas": "0x14cbb",
        "value": "0x0",
        "input": "0x4000aea00000000000000000000000009ddfaca8183c41ad55329bdeed9f6a8d53168b1b00000000000000000000000000000000000000000000000029a2241af62c00000000000000000000000000000000000000000000000000000000000000000060000000000000000000000000000000000000000000000000000000000000002028e71ef008640e5240bca964bc806c379304a19659b23168acf196d862250d76",
        "nonce": "0x29",
        "chainId": "0xaa36a7"
      },
      "additionalContracts": [],
      "isFixedGasLimit": false
    }
  ],
  "receipts": [
    {
      "status": "0x1",
      "cumulativeGasUsed": "0xb120a8",
      "logs": [
        {
          "address": "0x779877a7b0d9e8603169ddbd7836e478b4624789",
          "topics": [
            "0xddf252ad1be2c89b69c2b068fc378daa952ba7f163c4a11628f55a4df523b3ef",
            "0x000000000000000000000000dbc29e79b2b3b62c015ab598d0bb86681313d90f",
            "0x0000000000000000000000009ddfaca8183c41ad55329bdeed9f6a8d53168b1b"
          ],
          "data": "0x00000000000000000000000000000000000000000000000029a2241af62c0000",
          "blockHash": "0xa88970b9a9867545999ba39694eb911ec5dcefa98eae00033d77c8e01800dccd",
          "blockNumber": "0x7c2dbf",
          "blockTimestamp": "0x68012db4",
          "transactionHash": "0xef3a17471919dab9a948a0e56f5ce1018bdab6cbbfb793888cdc237dfe43fc6c",
          "transactionIndex": "0x52",
          "logIndex": "0x73",
          "removed": false
        },
        {
          "address": "0x779877a7b0d9e8603169ddbd7836e478b4624789",
          "topics": [
            "0xe19260aff97b920c7df27010903aeb9c8d2be5d310a2c67824cf3f15396e4c16",
            "0x000000000000000000000000dbc29e79b2b3b62c015ab598d0bb86681313d90f",
            "0x0000000000000000000000009ddfaca8183c41ad55329bdeed9f6a8d53168b1b"
          ],
          "data": "0x00000000000000000000000000000000000000000000000029a2241af62c00000000000000000000000000000000000000000000000000000000000000000040000000000000000000000000000000000000000000000000000000000000002028e71ef008640e5240bca964bc806c379304a19659b23168acf196d862250d76",
          "blockHash": "0xa88970b9a9867545999ba39694eb911ec5dcefa98eae00033d77c8e01800dccd",
          "blockNumber": "0x7c2dbf",
          "blockTimestamp": "0x68012db4",
          "transactionHash": "0xef3a17471919dab9a948a0e56f5ce1018bdab6cbbfb793888cdc237dfe43fc6c",
          "transactionIndex": "0x52",
          "logIndex": "0x74",
          "removed": false
        },
        {
          "address": "0x9ddfaca8183c41ad55329bdeed9f6a8d53168b1b",
          "topics": [
            "0x1ced9348ff549fceab2ac57cd3a9de38edaaab274b725ee82c23e8fc8c4eec7a",
            "0x28e71ef008640e5240bca964bc806c379304a19659b23168acf196d862250d76"
          ],
          "data": "0x000000000000000000000000000000000000000000000000000000000000000000000000000000000000000000000000000000000000000029a2241af62c0000",
          "blockHash": "0xa88970b9a9867545999ba39694eb911ec5dcefa98eae00033d77c8e01800dccd",
          "blockNumber": "0x7c2dbf",
          "blockTimestamp": "0x68012db4",
          "transactionHash": "0xef3a17471919dab9a948a0e56f5ce1018bdab6cbbfb793888cdc237dfe43fc6c",
          "transactionIndex": "0x52",
          "logIndex": "0x75",
          "removed": false
        }
      ],
      "logsBloom": "0x00000004800000000000000000000000000000000030000000000000020000000000000000000000000000000000000000000000000000000000000000000000100000000000000008000008000000000200000000000000000020000020000008000000000000000000000000000000000000000000000000000010000040000000000000000000000000010000800000000020000000000000000000000000000000000000000000000000010000000000000000000000000004000000000000000002000000000000000000000000000000000000000100000000000000000010000000000000800000000000000000000000000000000000000000000000",
      "type": "0x2",
      "transactionHash": "0xef3a17471919dab9a948a0e56f5ce1018bdab6cbbfb793888cdc237dfe43fc6c",
      "transactionIndex": "0x52",
      "blockHash": "0xa88970b9a9867545999ba39694eb911ec5dcefa98eae00033d77c8e01800dccd",
      "blockNumber": "0x7c2dbf",
      "gasUsed": "0xf0e5",
      "effectiveGasPrice": "0x10b8787e",
      "from": "0xdbc29e79b2b3b62c015ab598d0bb86681313d90f",
      "to": "0x779877a7b0d9e8603169ddbd7836e478b4624789",
      "contractAddress": null
    }
  ],
  "libraries": [],
  "pending": [],
  "returns": {},
  "timestamp": 1744907702,
  "chain": 11155111,
  "commit": "94efcea"
}