{
  "transactions": [
    {
      "hash": "0x84b951264e04e28ae5dfe416f4d664221229f965f0e40e7d855183d7e19b1d82",
      "transactionType": "CALL",
      "contractName": null,
      "contractAddress": "0x779877a7b0d9e8603169ddbd7836e478b4624789",
      "function": "transferAndCall(address,uint256,bytes)",
      "arguments": [
        "0x9DdfaCa8183c41ad55329BdeeD9F6A8d53168B1B",
        "3000000000000000000",
        "0x4f71c8e28f49eacd78a617a1b02ca6c8815ec968960650e3648e21c22417ee62"
      ],
      "transaction": {
        "from": "0xdbc29e79b2b3b62c015ab598d0bb86681313d90f",
        "to": "0x779877a7b0d9e8603169ddbd7836e478b4624789",
        "gas": "0x14cbb",
        "value": "0x0",
        "input": "0x4000aea00000000000000000000000009ddfaca8183c41ad55329bdeed9f6a8d53168b1b00000000000000000000000000000000000000000000000029a2241af62c0000000000000000000000000000000000000000000000000000000000000000006000000000000000000000000000000000000000000000000000000000000000204f71c8e28f49eacd78a617a1b02ca6c8815ec968960650e3648e21c22417ee62",
        "nonce": "0x2a",
        "chainId": "0xaa36a7"
      },
      "additionalContracts": [],
      "isFixedGasLimit": false
    }
  ],
  "receipts": [
    {
      "status": "0x1",
      "cumulativeGasUsed": "0x10db8c8",
      "logs": [
        {
          "address": "0x779877a7b0d9e8603169ddbd7836e478b4624789",
          "topics": [
            "0xddf252ad1be2c89b69c2b068fc378daa952ba7f163c4a11628f55a4df523b3ef",
            "0x000000000000000000000000dbc29e79b2b3b62c015ab598d0bb86681313d90f",
            "0x0000000000000000000000009ddfaca8183c41ad55329bdeed9f6a8d53168b1b"
          ],
          "data": "0x00000000000000000000000000000000000000000000000029a2241af62c0000",
          "blockHash": "0xf25915ea7c0c33ffa741bdb0d38affd748b153c3361225e95fcfb528e51dc284",
          "blockNumber": "0x7c2f4b",
          "blockTimestamp": "0x680140ec",
          "transactionHash": "0x84b951264e04e28ae5dfe416f4d664221229f965f0e40e7d855183d7e19b1d82",
          "transactionIndex": "0x79",
          "logIndex": "0xab",
          "removed": false
        },
        {
          "address": "0x779877a7b0d9e8603169ddbd7836e478b4624789",
          "topics": [
            "0xe19260aff97b920c7df27010903aeb9c8d2be5d310a2c67824cf3f15396e4c16",
            "0x000000000000000000000000dbc29e79b2b3b62c015ab598d0bb86681313d90f",
            "0x0000000000000000000000009ddfaca8183c41ad55329bdeed9f6a8d53168b1b"
          ],
          "data": "0x00000000000000000000000000000000000000000000000029a2241af62c0000000000000000000000000000000000000000000000000000000000000000004000000000000000000000000000000000000000000000000000000000000000204f71c8e28f49eacd78a617a1b02ca6c8815ec968960650e3648e21c22417ee62",
          "blockHash": "0xf25915ea7c0c33ffa741bdb0d38affd748b153c3361225e95fcfb528e51dc284",
          "blockNumber": "0x7c2f4b",
          "blockTimestamp": "0x680140ec",
          "transactionHash": "0x84b951264e04e28ae5dfe416f4d664221229f965f0e40e7d855183d7e19b1d82",
          "transactionIndex": "0x79",
          "logIndex": "0xac",
          "removed": false
        },
        {
          "address": "0x9ddfaca8183c41ad55329bdeed9f6a8d53168b1b",
          "topics": [
            "0x1ced9348ff549fceab2ac57cd3a9de38edaaab274b725ee82c23e8fc8c4eec7a",
            "0x4f71c8e28f49eacd78a617a1b02ca6c8815ec968960650e3648e21c22417ee62"
          ],
          "data": "0x0000000000000000000000000000000000000000000000008ac7230489e80000000000000000000000000000000000000000000000000000b469471f80140000",
          "blockHash": "0xf25915ea7c0c33ffa741bdb0d38affd748b153c3361225e95fcfb528e51dc284",
          "blockNumber": "0x7c2f4b",
          "blockTimestamp": "0x680140ec",
          "transactionHash": "0x84b951264e04e28ae5dfe416f4d664221229f965f0e40e7d855183d7e19b1d82",
          "transactionIndex": "0x79",
          "logIndex": "0xad",
          "removed": false
        }
      ],
      "logsBloom": "0x00000004800000000000000000000000000000000030000000000000020000000000000000000000000000000000000000000000000000010000000000000000100000000000000000000008000000000000000000000000000020000020000008000000000000000000000000000000000000000000000000000010000040000000000000000000000000010000800000000020000000000002000000000000000000000000000000000000010000000000000080000000000004000000000000000002000000000000000000000000000000000000000100000000000000000010000000000000800000000000000000000000000000000000000000000000",
      "type": "0x2",
      "transactionHash": "0x84b951264e04e28ae5dfe416f4d664221229f965f0e40e7d855183d7e19b1d82",
      "transactionIndex": "0x79",
      "blockHash": "0xf25915ea7c0c33ffa741bdb0d38affd748b153c3361225e95fcfb528e51dc284",
      "blockNumber": "0x7c2f4b",
      "gasUsed": "0xf0e5",
      "effectiveGasPrice": "0x9d6c873",
      "from": "0xdbc29e79b2b3b62c015ab598d0bb86681313d90f",
      "to": "0x779877a7b0d9e8603169ddbd7836e478b4624789",
      "contractAddress": null
    }
  ],
  "libraries": [],
  "pending": [],
  "returns": {},
  "timestamp": 1744912622,
  "chain": 11155111,
  "commit": "94efcea"
}